:1000000075B03F78FFE590B5FF03020005F880006A
:10001000B4FE0575B00680EDB4FD0575B05B80E5F6
:10002000B4FC0575B04F80DDB4FB0575B06680D5B6
:10003000B4FA0575B06D80CDB4F90575B07D80C595
:10004000B4F80575B00780BDB4F70575B07F80B50D
:10005000B4F60575B06F80ADB4F50575B07780A5C1
:10006000B4F40575B07C809DB4F30575B039809506
:10007000B4F20575B05E808DB4F10575B0798085F8
:09008000B4F00375B07102000533
:00000001FF