:10000000759000D290120044D291C290120044D256
:1000100092C291120044D293C292120044D294C26E
:1000200093120044D295C294120044D296C2951203
:100030000044D297C296120044C2971200441200A4
:10004000610200037E9B7D96DEFE7E9BDDFA227EB2
:10005000FF7DFADEF37EFFDDEF12004FDEEADDE822
:1000600022D297120044D296C297120044D295C26F
:1000700096120044D294C295120044D293C29412B4
:100080000044D292C293120044D291C29212004410
:10009000D290C291120044C2901200441200D1D2F8
:1000A00094D293120044D295D292C294C293120079
:1000B00044D296D291C295C292120044D297D29065
:1000C000C296C291120044C297C29012004412011B
:1000D000E4D297D290120044D296D291C297C290A5
:1000E000120044D295D292C296C291120044D29488
:1000F000D293C295C292120044C294C29312004499
:1001000012009FD290120044D291C290120044D2A9
:1001100092C291120044D293C292120044D294C26D
:1001200093120044D295C294120044D296C2951202
:100130000044D297C29612004422D290120044D2B8
:1001400091C290120044D292C291120044D293C242
:1001500092120044D294C293120044D295C29412D7
:100160000044D296C29512004422D290120044D28A
:1001700091C290120044D292C291120044D293C212
:1001800092120044D294C293120044D295C29412A7
:10019000004422D290120044D291C290120044D264
:1001A00092C291120044D293C292120044D294C2DD
:1001B0009312004422D290120044D291C2901200B5
:1001C00044D292C291120044D293C29212004422AD
:1001D000D290120044D291C290120044D292C291A5
:1001E0001200442212010312013A12016A12019311
:1001F0001201B51201D0D290120044D291C29012D5
:100200000044D29012004F12004FC290C292C2948A
:10021000C29612004F12004F12004F12004FD290A0
:10022000D292D294D296C291C293C295C297120032
:0D0230004F12004F12004F12004F1200033A
:00000001FF