:1000000075900075A000D290120047D291C2901254
:100010000047D292C291120047D293C29212004777
:10002000D294C293120047D295C294120047D2963E
:10003000C295120047D297C296120047C29712008B
:10004000471200520200067E9B7D96DEFE7E9BDDFF
:10005000FA22D297120047D296C297120047D29541
:10006000C296120047D294C295120047D293C2940E
:10007000120047D292C293120047D291C29212004C
:1000800047D290C291120047C2901200471200BF9F
:10009000D294D293120047D295D292C294C29312B4
:1000A0000047D296D291C295C292120047D297D2FF
:1000B00090C296C291120047C297C290120047D2D6
:1000C00097D290120047D296D291C297C290120056
:1000D00047D295D292C296C291120047D294D2933F
:1000E000C295C292120047C294C2931200471200F6
:1000F000F1D2A0120047120047C2A0D2A1120047BD
:10010000120047C2A1D2A2120047120047C2A2D2D7
:0F011000A3120047120047C2A3120047120006B5
:00000001FF