:10000000759000D290120059C290120059D29112EC
:100010000059C291120059D292120059C292120094
:1000200059D293120059C293120059D29412005916
:10003000C294120059D295120059C295120059D299
:1000400096120059C296120059D297120059C297BF
:100050001200591200640200037EFF7D96DEFE7ED0
:10006000FFDDFA22D297120059C297120059D29698
:10007000120059C296120059D295120059C2951217
:100080000059D294120059C294120059D29312000E
:1000900059C293120059D292120059C292120059B9
:1000A000D291120059C291120059D290120059C235
:1000B000901200591200F2D294D293120059C294B5
:1000C000C293120059D295D292120059C295C2928F
:1000D000120059D296D291120059C296C2911200C2
:1000E00059D297D290120059C297C2901200591259
:1000F0000003D297D290120059C297C290120059B1
:10010000D296D291120059C296C291120059D2953C
:10011000D292120059C295C292120059D294D2932F
:0D012000120059C294C2931200591200B788
:00000001FF