:03000000020040BB
:10004000758901758800D293D294D295C296E590B5
:1000500044F8B4F92E78C8C293D296758CF6758A96
:100060003BD28CC297308DFDC28CC28D758CA87529
:100070008A1BD28CD297308DFDC28CC28DD8DCD237
:1000800093C296B4FA2E78C8C294D296758CD8755D
:100090008AEFD28CC297308DFDC28CC28D758CC513
:1000A000758A67D28CD297308DFDC28CC28DD8DC18
:1000B000D294C296B4FB2E78C8C295D296758CBBEA
:1000C000758AA3D28CC297308DFDC28CC28D758C7F
:1000D000E2758AB3D28CD297308DFDC28CC28DD896
:0800E000DCD295C29602004E2D
:00000001FF