:10000000759000D29012003E75900212003E7590DD
:100010000412003E75900812003E75901012003ECA
:1000200075902012003E75904012003E759080122F
:10003000003E75900012003E1200640200037E9B99
:100040007D96DEFE7E9BDDFA227EFF7DFADEF37E6C
:10005000FFDDEF120049DEEADDE8227E377D32DE89
:10006000FEDDFC22D29712003E75904012003E75D4
:10007000902012003E75901012003E7590081200FC
:100080003E75900412003E75900212003E7590017C
:1000900012003E75900012003E1200BD75901812BD
:1000A000003E75902412003E75904212003E7590FD
:1000B0008112003E75900012003E1201DA759081A7
:1000C00012003E75904212003E75902412003E755B
:1000D000901812003E75900012003E12009CD290C3
:1000E00012003E75900212003E75900412003E759B
:1000F000900812003E75901012003E75902012007C
:100100003E75904012003E75908012003E759081C1
:1001100012003E75908212003E75908412003E756A
:10012000908812003E75909012003E7590A01200CB
:100130003E7590C012003E7590C112003E7590C28F
:1001400012003E7590C412003E7590C812003E75B4
:1001500090D012003E7590E012003E7590E11200C2
:100160003E7590E212003E7590E412003E7590E8F4
:1001700012003E7590F012003E7590F112003E752F
:1001800090F212003E7590F412003E7590F8120045
:100190003E7590F912003E7590FA12003E7590FC83
:1001A00012003E7590FD12003E7590FE12003E75E5
:1001B00090FF1200497590001200497590FF1200DF
:1001C000497590001200497590FF12004975900022
:1001D0001200497590FF12003E221200DE7590AAAF
:1001E0001200491200491200491200497590551237
:1001F00000491200491200491200491201FE75908F
:100200005612003E75905412003E75905812003EF2
:1002100075905012003E75906012003E759040122D
:10022000003E75908012003E75900012003ED297FD
:1002300012003E75904012003E75902012003E75EF
:10024000901012003E75900812003E759004120046
:100250003E75900212003E75900112003E759000AE
:1002600012003E1202D57590AA12005B75906B12B7
:10027000005B75905512005B7590B212005B759033
:10028000D712005B7590AD12005B7590AA12005BEF
:1002900075906B12005B75905512005B7590B212F1
:1002A000005B7590D712005B7590AD12005B759086
:1002B000AA12005B75906B12005B75905512005B83
:1002C0007590B212005B7590D712005B7590AD12FD
:1002D000005B120003D29012003E75900212003EA5
:1002E00075900412003E75900812003E7590101231
:1002F000003E75902012003E75904012003E7590B1
:100300008012003E75900012003ED29712003ED23D
:100310009612003ED29512003ED29412003ED29325
:1003200012003ED29212003ED29112003ED29012A2
:10033000003E75900012005B7590FF12005B759097
:100340000012005B7590FF12005B75900012005B5D
:100350007590FF1200497590BF1200497590BD124B
:10036000004975909D120049759099120049759049
:1003700089120049759085120049759083120049D1
:1003800075908512004975908912004975909112F7
:1003900000497590A11200497590C11200497590ED
:1003A000A112004975909112004975908912004977
:1003B00075908512004975908312004975908512D9
:1003C0000049759089120049759091120049759005
:1003D000A11200497590C31200497590A3120049FB
:1003E00075909312004975908B1200497590871291
:1003F00000497590C31200497590C7120049759065
:10040000CD1200497590D91200497590F11200493A
:100410007590E31200497590F31200497590BB1274
:10042000004975909F1200497590CF120049759050
:10043000DF1200497590FF120049759000120049C3
:100440007590FF1200497590001200497590FF12D7
:080450000049759000120266DC
:00000001FF