:10000000759000D29012003E75900212003E7590DD
:100010000412003E75900812003E75901012003ECA
:1000200075902012003E75904012003E759080122F
:10003000003E75900012003E12005B0200037E9BA2
:100040007D96DEFE7E9BDDFA227EFF7DFADEF37E6C
:10005000FFDDEF120049DEEADDE822D29712003E12
:1000600075904012003E75902012003E759010125F
:10007000003E75900812003E75900412003E759087
:100080000212003E75900112003E75900012003E73
:100090001200B475901812003E75902412003E753F
:1000A000904212003E75908112003E759000120041
:1000B0003E1201AD75908112003E75904212003ED5
:1000C00075902412003E75901812003E7590001233
:1000D000003E120093D29012003E75900212003E34
:1000E00075900412003E75900812003E7590101233
:1000F000003E75902012003E75904012003E7590B3
:100100008012003E75908112003E75908212003E72
:1001100075908412003E75908812003E7590901282
:10012000003E7590A012003E7590C012003E759082
:10013000C112003E7590C212003E7590C412003E7E
:100140007590C812003E7590D012003E7590E01276
:10015000003E7590E112003E7590E212003E7590EF
:10016000E412003E7590E812003E7590F012003ED9
:100170007590F112003E7590F212003E7590F412E7
:10018000003E7590F812003E7590F912003E759091
:10019000FA12003E7590FC12003E7590FD12003E72
:1001A0007590FE12003E7590FF12003E221200D59F
:1001B0001200491200497590AA1200491200491212
:1001C0000049120049759055120049120049120069
:1001D000491200491201D775905612003E7590548D
:1001E00012003E75905812003E75905012003E75F8
:1001F000906012003E75904012003E759080120093
:100200003E75900012003ED29712003E759040124B
:10021000003E75902012003E75901012003E7590C1
:100220000812003E75900412003E75900212003EC6
:0F02300075900112003E75900012003E120003FF
:00000001FF