:10000000759000D290120044D291C290120044D256
:1000100092C291120044D293C292120044D294C26E
:1000200093120044D295C294120044D296C2951203
:100030000044D297C296120044C2971200441200A4
:100040004F0200037E9B7D96DEFE7E9BDDFA22D270
:1000500097120044D296C297120044D295C29612CB
:100060000044D294C295120044D293C29412004428
:10007000D292C293120044D291C292120044D29002
:10008000C291120044C2901200441200BFD294D216
:1000900093120044D295D292C294C293120044D2D9
:1000A00096D291C295C292120044D297D290C29633
:1000B000C291120044C297C290120044120003D2AF
:1000C00097D290120044D296D291C297C290120059
:1000D00044D295D292C296C291120044D294D29345
:1000E000C295C292120044C294C2931200441200FC
:0100F0008D82
:00000001FF